{
  "contractName": "DogeFlow",
  "abi": [
    {
      "inputs": [],
      "payable": false,
      "stateMutability": "nonpayable",
      "type": "constructor"
    },
    {
      "constant": false,
      "inputs": [],
      "name": "AddMoney",
      "outputs": [
        {
          "name": "",
          "type": "bool"
        }
      ],
      "payable": true,
      "stateMutability": "payable",
      "type": "function"
    },
    {
      "constant": false,
      "inputs": [],
      "name": "ClaimAll",
      "outputs": [
        {
          "name": "",
          "type": "bool"
        }
      ],
      "payable": false,
      "stateMutability": "nonpayable",
      "type": "function"
    },
    {
      "constant": false,
      "inputs": [],
      "name": "WithdrawMoney",
      "outputs": [
        {
          "name": "",
          "type": "bool"
        }
      ],
      "payable": true,
      "stateMutability": "payable",
      "type": "function"
    },
    {
      "constant": false,
      "inputs": [
        {
          "name": "_name",
          "type": "bytes32"
        },
        {
          "name": "_description",
          "type": "bytes32"
        },
        {
          "name": "_startTime",
          "type": "uint256"
        },
        {
          "name": "_endTime",
          "type": "uint256"
        },
        {
          "name": "_bounty",
          "type": "uint256"
        },
        {
          "name": "_deposit",
          "type": "uint256"
        }
      ],
      "name": "Announce",
      "outputs": [
        {
          "name": "",
          "type": "bool"
        }
      ],
      "payable": false,
      "stateMutability": "nonpayable",
      "type": "function"
    },
    {
      "constant": false,
      "inputs": [
        {
          "name": "_owner",
          "type": "address"
        }
      ],
      "name": "Accept",
      "outputs": [
        {
          "name": "",
          "type": "bool"
        }
      ],
      "payable": false,
      "stateMutability": "nonpayable",
      "type": "function"
    },
    {
      "constant": false,
      "inputs": [],
      "name": "ConfirmB",
      "outputs": [
        {
          "name": "",
          "type": "bool"
        }
      ],
      "payable": false,
      "stateMutability": "nonpayable",
      "type": "function"
    },
    {
      "constant": false,
      "inputs": [],
      "name": "ConfirmA",
      "outputs": [
        {
          "name": "",
          "type": "bool"
        }
      ],
      "payable": false,
      "stateMutability": "nonpayable",
      "type": "function"
    },
    {
      "constant": false,
      "inputs": [],
      "name": "Cancel",
      "outputs": [
        {
          "name": "",
          "type": "bool"
        }
      ],
      "payable": false,
      "stateMutability": "nonpayable",
      "type": "function"
    },
    {
      "constant": false,
      "inputs": [],
      "name": "TimeOut",
      "outputs": [
        {
          "name": "",
          "type": "bool"
        }
      ],
      "payable": false,
      "stateMutability": "nonpayable",
      "type": "function"
    }
  ],
  "bytecode": "0x6060604052341561000f57600080fd5b33600560006101000a81548173ffffffffffffffffffffffffffffffffffffffff021916908373ffffffffffffffffffffffffffffffffffffffff16021790555061254f8061005f6000396000f300606060405260043610610099576000357c0100000000000000000000000000000000000000000000000000000000900463ffffffff16806342f8cfcf1461009e5780634aa8e773146100cb57806354c05203146100f85780635a31e169146101255780635dbe2599146101955780636d6a78bf146101e657806371ad29ee146102135780638e5771bb14610240578063b6c58ac214610262575b600080fd5b34156100a957600080fd5b6100b1610284565b604051808215151515815260200191505060405180910390f35b34156100d657600080fd5b6100de610537565b604051808215151515815260200191505060405180910390f35b341561010357600080fd5b61010b6107c2565b604051808215151515815260200191505060405180910390f35b341561013057600080fd5b61017b60048080356000191690602001909190803560001916906020019091908035906020019091908035906020019091908035906020019091908035906020019091905050610d9d565b604051808215151515815260200191505060405180910390f35b34156101a057600080fd5b6101cc600480803573ffffffffffffffffffffffffffffffffffffffff169060200190919050506111b3565b604051808215151515815260200191505060405180910390f35b34156101f157600080fd5b6101f96115fe565b604051808215151515815260200191505060405180910390f35b341561021e57600080fd5b6102266116d8565b604051808215151515815260200191505060405180910390f35b610248611947565b604051808215151515815260200191505060405180910390f35b61026a61199d565b604051808215151515815260200191505060405180910390f35b600080600160003373ffffffffffffffffffffffffffffffffffffffff1673ffffffffffffffffffffffffffffffffffffffff16815260200190815260200160002060009054906101000a900460ff1615156102df57600080fd5b6000803373ffffffffffffffffffffffffffffffffffffffff1673ffffffffffffffffffffffffffffffffffffffff16815260200190815260200160002060009054906101000a900473ffffffffffffffffffffffffffffffffffffffff1690508073ffffffffffffffffffffffffffffffffffffffff166342f8cfcf6000604051602001526040518163ffffffff167c0100000000000000000000000000000000000000000000000000000000028152600401602060405180830381600087803b15156103ac57600080fd5b6102c65a03f115156103bd57600080fd5b505050604051805190501561052e578073ffffffffffffffffffffffffffffffffffffffff1663ceaa1f0f6000604051602001526040518163ffffffff167c0100000000000000000000000000000000000000000000000000000000028152600401602060405180830381600087803b151561043857600080fd5b6102c65a03f1151561044957600080fd5b50505060405180519050600260008373ffffffffffffffffffffffffffffffffffffffff1663d53f43986000604051602001526040518163ffffffff167c0100000000000000000000000000000000000000000000000000000000028152600401602060405180830381600087803b15156104c357600080fd5b6102c65a03f115156104d457600080fd5b5050506040518051905073ffffffffffffffffffffffffffffffffffffffff1673ffffffffffffffffffffffffffffffffffffffff1681526020019081526020016000206000828254019250508190555060019150610533565b600091505b5090565b600080600160003373ffffffffffffffffffffffffffffffffffffffff1673ffffffffffffffffffffffffffffffffffffffff16815260200190815260200160002060009054906101000a900460ff16151561059257600080fd5b6000803373ffffffffffffffffffffffffffffffffffffffff1673ffffffffffffffffffffffffffffffffffffffff16815260200190815260200160002060009054906101000a900473ffffffffffffffffffffffffffffffffffffffff1673ffffffffffffffffffffffffffffffffffffffff166380eba6c16000604051602001526040518163ffffffff167c0100000000000000000000000000000000000000000000000000000000028152600401602060405180830381600087803b151561065c57600080fd5b6102c65a03f1151561066d57600080fd5b5050506040518051905090506000803373ffffffffffffffffffffffffffffffffffffffff1673ffffffffffffffffffffffffffffffffffffffff16815260200190815260200160002060009054906101000a900473ffffffffffffffffffffffffffffffffffffffff1673ffffffffffffffffffffffffffffffffffffffff16634aa8e7736000604051602001526040518163ffffffff167c0100000000000000000000000000000000000000000000000000000000028152600401602060405180830381600087803b151561074357600080fd5b6102c65a03f1151561075457600080fd5b50505060405180519050156107b95780600260003373ffffffffffffffffffffffffffffffffffffffff1673ffffffffffffffffffffffffffffffffffffffff16815260200190815260200160002060008282540192505081905550600191506107be565b600091505b5090565b6000806000600460003373ffffffffffffffffffffffffffffffffffffffff1673ffffffffffffffffffffffffffffffffffffffff16815260200190815260200160002060009054906101000a900460ff16151561081f57600080fd5b600360003373ffffffffffffffffffffffffffffffffffffffff1673ffffffffffffffffffffffffffffffffffffffff16815260200190815260200160002060009054906101000a900473ffffffffffffffffffffffffffffffffffffffff1691506000803373ffffffffffffffffffffffffffffffffffffffff1673ffffffffffffffffffffffffffffffffffffffff16815260200190815260200160002060009054906101000a900473ffffffffffffffffffffffffffffffffffffffff169050600160008373ffffffffffffffffffffffffffffffffffffffff1673ffffffffffffffffffffffffffffffffffffffff16815260200190815260200160002060009054906101000a900460ff1615806109be57508073ffffffffffffffffffffffffffffffffffffffff1663f3b30ee36000604051602001526040518163ffffffff167c0100000000000000000000000000000000000000000000000000000000028152600401602060405180830381600087803b15156109a257600080fd5b6102c65a03f115156109b357600080fd5b505050604051805190505b156109cc5760009250610d98565b8073ffffffffffffffffffffffffffffffffffffffff1663d53f43986000604051602001526040518163ffffffff167c0100000000000000000000000000000000000000000000000000000000028152600401602060405180830381600087803b1515610a3857600080fd5b6102c65a03f11515610a4957600080fd5b5050506040518051905073ffffffffffffffffffffffffffffffffffffffff163373ffffffffffffffffffffffffffffffffffffffff16141580610b5157508073ffffffffffffffffffffffffffffffffffffffff1663ceaa1f0f6000604051602001526040518163ffffffff167c0100000000000000000000000000000000000000000000000000000000028152600401602060405180830381600087803b1515610af457600080fd5b6102c65a03f11515610b0557600080fd5b50505060405180519050600260003373ffffffffffffffffffffffffffffffffffffffff1673ffffffffffffffffffffffffffffffffffffffff16815260200190815260200160002054105b15610b5f5760009250610d98565b8073ffffffffffffffffffffffffffffffffffffffff1663ceaa1f0f6000604051602001526040518163ffffffff167c0100000000000000000000000000000000000000000000000000000000028152600401602060405180830381600087803b1515610bcb57600080fd5b6102c65a03f11515610bdc57600080fd5b50505060405180519050600260003373ffffffffffffffffffffffffffffffffffffffff1673ffffffffffffffffffffffffffffffffffffffff168152602001908152602001600020600082825403925050819055508073ffffffffffffffffffffffffffffffffffffffff166354c052036000604051602001526040518163ffffffff167c0100000000000000000000000000000000000000000000000000000000028152600401602060405180830381600087803b1515610c9e57600080fd5b6102c65a03f11515610caf57600080fd5b505050604051805190501515610d93578073ffffffffffffffffffffffffffffffffffffffff1663ceaa1f0f6000604051602001526040518163ffffffff167c0100000000000000000000000000000000000000000000000000000000028152600401602060405180830381600087803b1515610d2b57600080fd5b6102c65a03f11515610d3c57600080fd5b50505060405180519050600260003373ffffffffffffffffffffffffffffffffffffffff1673ffffffffffffffffffffffffffffffffffffffff168152602001908152602001600020600082825401925050819055505b600192505b505090565b60008083600260003373ffffffffffffffffffffffffffffffffffffffff1673ffffffffffffffffffffffffffffffffffffffff168152602001908152602001600020541015610df057600091506111a8565b83600260003373ffffffffffffffffffffffffffffffffffffffff1673ffffffffffffffffffffffffffffffffffffffff16815260200190815260200160002060008282540392505081905550600160003373ffffffffffffffffffffffffffffffffffffffff1673ffffffffffffffffffffffffffffffffffffffff16815260200190815260200160002060009054906101000a900460ff161515610fd05760018060003373ffffffffffffffffffffffffffffffffffffffff1673ffffffffffffffffffffffffffffffffffffffff16815260200190815260200160002060006101000a81548160ff021916908315150217905550878787878787610ef5611a8a565b80876000191660001916815260200186600019166000191681526020018581526020018481526020018381526020018281526020019650505050505050604051809103906000f0801515610f4857600080fd5b9050806000803373ffffffffffffffffffffffffffffffffffffffff1673ffffffffffffffffffffffffffffffffffffffff16815260200190815260200160002060006101000a81548173ffffffffffffffffffffffffffffffffffffffff021916908373ffffffffffffffffffffffffffffffffffffffff160217905550600191506111a8565b6000803373ffffffffffffffffffffffffffffffffffffffff1673ffffffffffffffffffffffffffffffffffffffff16815260200190815260200160002060009054906101000a900473ffffffffffffffffffffffffffffffffffffffff1673ffffffffffffffffffffffffffffffffffffffff1663f3b30ee36000604051602001526040518163ffffffff167c0100000000000000000000000000000000000000000000000000000000028152600401602060405180830381600087803b151561109a57600080fd5b6102c65a03f115156110ab57600080fd5b50505060405180519050156111a3578787878787876110c8611a8a565b80876000191660001916815260200186600019166000191681526020018581526020018481526020018381526020018281526020019650505050505050604051809103906000f080151561111b57600080fd5b9050806000803373ffffffffffffffffffffffffffffffffffffffff1673ffffffffffffffffffffffffffffffffffffffff16815260200190815260200160002060006101000a81548173ffffffffffffffffffffffffffffffffffffffff021916908373ffffffffffffffffffffffffffffffffffffffff160217905550600191506111a8565b600091505b509695505050505050565b6000600160008373ffffffffffffffffffffffffffffffffffffffff1673ffffffffffffffffffffffffffffffffffffffff16815260200190815260200160002060009054906101000a900460ff1615806112f65750600115156000808473ffffffffffffffffffffffffffffffffffffffff1673ffffffffffffffffffffffffffffffffffffffff16815260200190815260200160002060009054906101000a900473ffffffffffffffffffffffffffffffffffffffff1673ffffffffffffffffffffffffffffffffffffffff1663f3b30ee36000604051602001526040518163ffffffff167c0100000000000000000000000000000000000000000000000000000000028152600401602060405180830381600087803b15156112d757600080fd5b6102c65a03f115156112e857600080fd5b505050604051805190501515145b1561130457600090506115f9565b600460003373ffffffffffffffffffffffffffffffffffffffff1673ffffffffffffffffffffffffffffffffffffffff16815260200190815260200160002060009054906101000a900460ff1615156114da576000808373ffffffffffffffffffffffffffffffffffffffff1673ffffffffffffffffffffffffffffffffffffffff16815260200190815260200160002060009054906101000a900473ffffffffffffffffffffffffffffffffffffffff1673ffffffffffffffffffffffffffffffffffffffff16635dbe2599336000604051602001526040518263ffffffff167c0100000000000000000000000000000000000000000000000000000000028152600401808273ffffffffffffffffffffffffffffffffffffffff1673ffffffffffffffffffffffffffffffffffffffff168152602001915050602060405180830381600087803b151561145857600080fd5b6102c65a03f1151561146957600080fd5b50505060405180519050156114d1576001600460003373ffffffffffffffffffffffffffffffffffffffff1673ffffffffffffffffffffffffffffffffffffffff16815260200190815260200160002060006101000a81548160ff0219169083151502179055505b600190506115f9565b6000808373ffffffffffffffffffffffffffffffffffffffff1673ffffffffffffffffffffffffffffffffffffffff16815260200190815260200160002060009054906101000a900473ffffffffffffffffffffffffffffffffffffffff1673ffffffffffffffffffffffffffffffffffffffff16635dbe2599336000604051602001526040518263ffffffff167c0100000000000000000000000000000000000000000000000000000000028152600401808273ffffffffffffffffffffffffffffffffffffffff1673ffffffffffffffffffffffffffffffffffffffff168152602001915050602060405180830381600087803b15156115db57600080fd5b6102c65a03f115156115ec57600080fd5b5050506040518051905090505b919050565b6000806000600260003373ffffffffffffffffffffffffffffffffffffffff1673ffffffffffffffffffffffffffffffffffffffff16815260200190815260200160002054141561164e57600080fd5b600260003373ffffffffffffffffffffffffffffffffffffffff1673ffffffffffffffffffffffffffffffffffffffff1681526020019081526020016000205490503373ffffffffffffffffffffffffffffffffffffffff166108fc829081150290604051600060405180830381858888f1935050505015156116d057600080fd5b600191505090565b6000806000600160003373ffffffffffffffffffffffffffffffffffffffff1673ffffffffffffffffffffffffffffffffffffffff16815260200190815260200160002060009054906101000a900460ff16151561173557600080fd5b4291506000803373ffffffffffffffffffffffffffffffffffffffff1673ffffffffffffffffffffffffffffffffffffffff16815260200190815260200160002060009054906101000a900473ffffffffffffffffffffffffffffffffffffffff1690508073ffffffffffffffffffffffffffffffffffffffff16637ccd9f336000604051602001526040518163ffffffff167c0100000000000000000000000000000000000000000000000000000000028152600401602060405180830381600087803b151561180557600080fd5b6102c65a03f1151561181657600080fd5b505050604051805190508173ffffffffffffffffffffffffffffffffffffffff1663f50c64396000604051602001526040518163ffffffff167c0100000000000000000000000000000000000000000000000000000000028152600401602060405180830381600087803b151561188c57600080fd5b6102c65a03f1151561189d57600080fd5b505050604051805190500142111561193d578073ffffffffffffffffffffffffffffffffffffffff166371ad29ee6000604051602001526040518163ffffffff167c0100000000000000000000000000000000000000000000000000000000028152600401602060405180830381600087803b151561191b57600080fd5b6102c65a03f1151561192c57600080fd5b505050604051805190509250611942565b600092505b505090565b600034600260003373ffffffffffffffffffffffffffffffffffffffff1673ffffffffffffffffffffffffffffffffffffffff168152602001908152602001600020600082825401925050819055506001905090565b60008034905034600260003373ffffffffffffffffffffffffffffffffffffffff1673ffffffffffffffffffffffffffffffffffffffff16815260200190815260200160002054101515611a815780600260003373ffffffffffffffffffffffffffffffffffffffff1673ffffffffffffffffffffffffffffffffffffffff168152602001908152602001600020600082825403925050819055503373ffffffffffffffffffffffffffffffffffffffff166108fc829081150290604051600060405180830381858888f193505050501515611a7857600080fd5b60019150611a86565b600091505b5090565b604051610a8980611a9b8339019056006060604052341561000f57600080fd5b60405160c080610a8983398101604052808051906020019091908051906020019091908051906020019091908051906020019091908051906020019091908051906020019091905050336000806101000a81548173ffffffffffffffffffffffffffffffffffffffff021916908373ffffffffffffffffffffffffffffffffffffffff16021790555085600281600019169055508460038160001916905550836005819055508260068190555081600981905550816007819055508060088190555060028484038115156100df57fe5b04600a8190555060006004819055506000600b60006101000a81548160ff0219169083151502179055506000600b60016101000a81548160ff021916908315150217905550505050505050610950806101396000396000f30060606040526004361061013e576000357c0100000000000000000000000000000000000000000000000000000000900463ffffffff16806306fdde0314610143578063194307bf146101745780633197cbb6146101a15780633f16a10b146101ca57806342f8cfcf1461021f5780634aa8e7731461024c57806354c05203146102795780635dbe2599146102a657806370dea79a146102f757806371ad29ee146103205780637284e4161461034d57806378e979251461037e5780637bbdb96e146103a75780637ccd9f33146103d057806380eba6c1146103f95780638da5cb5b14610422578063943dfef114610477578063b1c9fe6e146104a0578063b6761a64146104c9578063ceaa1f0f146104f6578063d0e30db01461051f578063d53f439814610548578063f3b30ee31461059d578063f50c6439146105ca575b600080fd5b341561014e57600080fd5b6101566105f3565b60405180826000191660001916815260200191505060405180910390f35b341561017f57600080fd5b6101876105f9565b604051808215151515815260200191505060405180910390f35b34156101ac57600080fd5b6101b461060c565b6040518082815260200191505060405180910390f35b34156101d557600080fd5b6101dd610612565b604051808273ffffffffffffffffffffffffffffffffffffffff1673ffffffffffffffffffffffffffffffffffffffff16815260200191505060405180910390f35b341561022a57600080fd5b610232610638565b604051808215151515815260200191505060405180910390f35b341561025757600080fd5b61025f61067a565b604051808215151515815260200191505060405180910390f35b341561028457600080fd5b61028c6106df565b604051808215151515815260200191505060405180910390f35b34156102b157600080fd5b6102dd600480803573ffffffffffffffffffffffffffffffffffffffff16906020019091905050610718565b604051808215151515815260200191505060405180910390f35b341561030257600080fd5b61030a61080d565b6040518082815260200191505060405180910390f35b341561032b57600080fd5b610333610813565b604051808215151515815260200191505060405180910390f35b341561035857600080fd5b61036061085f565b60405180826000191660001916815260200191505060405180910390f35b341561038957600080fd5b610391610865565b6040518082815260200191505060405180910390f35b34156103b257600080fd5b6103ba61086b565b6040518082815260200191505060405180910390f35b34156103db57600080fd5b6103e3610871565b6040518082815260200191505060405180910390f35b341561040457600080fd5b61040c61087b565b6040518082815260200191505060405180910390f35b341561042d57600080fd5b610435610885565b604051808273ffffffffffffffffffffffffffffffffffffffff1673ffffffffffffffffffffffffffffffffffffffff16815260200191505060405180910390f35b341561048257600080fd5b61048a6108aa565b6040518082815260200191505060405180910390f35b34156104ab57600080fd5b6104b36108b0565b6040518082815260200191505060405180910390f35b34156104d457600080fd5b6104dc6108b6565b604051808215151515815260200191505060405180910390f35b341561050157600080fd5b6105096108c9565b6040518082815260200191505060405180910390f35b341561052a57600080fd5b6105326108d3565b6040518082815260200191505060405180910390f35b341561055357600080fd5b61055b6108d9565b604051808273ffffffffffffffffffffffffffffffffffffffff1673ffffffffffffffffffffffffffffffffffffffff16815260200191505060405180910390f35b34156105a857600080fd5b6105b0610903565b604051808215151515815260200191505060405180910390f35b34156105d557600080fd5b6105dd61091a565b6040518082815260200191505060405180910390f35b60025481565b600b60019054906101000a900460ff1681565b60065481565b600160009054906101000a900473ffffffffffffffffffffffffffffffffffffffff1681565b6000600260045414151561064f5760009050610677565b6001600b60016101000a81548160ff0219169083151502179055506000600981905550600190505b90565b6000600b60009054906101000a900460ff161580156106a65750600b60019054906101000a900460ff16155b156106d7576001600b60016101000a81548160ff0219169083151502179055506000600981905550600190506106dc565b600090505b90565b600060016004541415156106f65760009050610715565b6002600481905550600854600960008282540192505081905550600190505b90565b60008060045414801561077857506000809054906101000a900473ffffffffffffffffffffffffffffffffffffffff1673ffffffffffffffffffffffffffffffffffffffff168273ffffffffffffffffffffffffffffffffffffffff1614155b80156107915750600b60019054906101000a900460ff16155b156108035781600160006101000a81548173ffffffffffffffffffffffffffffffffffffffff021916908373ffffffffffffffffffffffffffffffffffffffff16021790555060016004819055506001600b60006101000a81548160ff02191690831515021790555060019050610808565b600090505b919050565b600a5481565b6000600b60019054906101000a900460ff161515610857576001600b60016101000a81548160ff02191690831515021790555060006009819055506001905061085c565b600090505b90565b60035481565b60055481565b60095481565b6000600a54905090565b6000600954905090565b6000809054906101000a900473ffffffffffffffffffffffffffffffffffffffff1681565b60075481565b60045481565b600b60009054906101000a900460ff1681565b6000600854905090565b60085481565b6000600160009054906101000a900473ffffffffffffffffffffffffffffffffffffffff16905090565b6000600b60019054906101000a900460ff16905090565b60006006549050905600a165627a7a72305820a9866a72dce1244190c4ee08b6d9c0cf330d3a3b039e15a58874cc3f3687f7e20029a165627a7a72305820c4c98673c1740350df99900c7b6e1281888ff705096917d13b041decdd78ecd70029",
  "source": "pragma solidity ^0.4.17;\r\n\r\nimport \"./DogeContract.sol\";\r\n\r\ncontract DogeFlow {\r\nmapping(address => DogeContract) doggies;\r\nmapping(address => bool) dogged;\r\nmapping(address => uint) balance;\r\nmapping(address => address) contracts;\r\nmapping(address => bool) contracted;\r\naddress owner;\r\n\r\nfunction DogeFlow() public {\r\nowner = msg.sender;\r\n}\r\n\r\nfunction AddMoney() payable returns (bool){\r\nbalance[msg.sender] += msg.value;\r\nreturn true;\r\n}\r\n\r\nfunction ClaimAll() public returns (bool){\r\nif (balance[msg.sender] == 0) throw;\r\nuint amount  = balance[msg.sender];\r\nmsg.sender.transfer(amount);\r\nreturn true;\r\n}\r\n\r\nfunction WithdrawMoney() payable returns (bool){\r\nuint amount = msg.value;\r\nif (balance[msg.sender] >= msg.value){\r\nbalance[msg.sender] -= amount;\r\nmsg.sender.transfer(amount);\r\nreturn true;\r\n}\r\nreturn false;\r\n}\r\n\r\nfunction Announce(bytes32 _name, bytes32 _description, uint _startTime, uint _endTime, uint _bounty, uint _deposit) public returns (bool){\r\nif (balance[msg.sender] < _bounty){\r\nreturn false;\r\n}\r\nbalance[msg.sender]-=_bounty;\r\nif (!dogged[msg.sender]){\r\ndogged[msg.sender] = true;\r\nDogeContract _contract = new DogeContract(_name, _description, _startTime, _endTime, _bounty, _deposit);\r\ndoggies[msg.sender] = _contract;\r\nreturn true;\r\n}\r\nif (doggies[msg.sender].GetTerminated()){\r\n_contract = new DogeContract(_name, _description, _startTime, _endTime, _bounty, _deposit);\r\ndoggies[msg.sender] = _contract;\r\nreturn true;\r\n}\r\nreturn false;\r\n}\r\n\r\nfunction Accept(address _owner) public returns (bool){\r\nif (!dogged[_owner] || doggies[_owner].GetTerminated() == true){\r\nreturn false;\r\n}\r\nif (!contracted[msg.sender]){\r\n\r\nif (doggies[_owner].Accept(msg.sender)){\r\ncontracted[msg.sender] = true;\r\n}\r\nreturn true;\r\n}\r\nreturn doggies[_owner].Accept(msg.sender);\r\n}\r\n\r\n\r\nfunction ConfirmB() public returns (bool){\r\nrequire (contracted[msg.sender]);\r\naddress _owner = contracts[msg.sender];\r\nDogeContract _contract = doggies[msg.sender];\r\nif (!dogged[_owner]||_contract.GetTerminated()){\r\nreturn false;\r\n}\r\nif (msg.sender != _contract.GetContracter() || balance[msg.sender] < _contract.GetDeposit()){\r\nreturn false;\r\n}\r\nbalance[msg.sender] -= _contract.GetDeposit();\r\nif (!_contract.ConfirmB()){\r\nbalance[msg.sender] += _contract.GetDeposit();\r\n}\r\nreturn true;\r\n}\r\n\r\nfunction ConfirmA() public returns (bool){\r\nrequire(dogged[msg.sender]);\r\nDogeContract _contract = doggies[msg.sender];\r\nif (_contract.ConfirmA()){\r\nbalance[_contract.GetContracter()] += _contract.GetDeposit();\r\nreturn true;\r\n}\r\nreturn false;\r\n}\r\n\r\nfunction Cancel() public returns (bool){\r\nrequire(dogged[msg.sender]);\r\nuint amount = doggies[msg.sender].GetChannel();\r\nif (doggies[msg.sender].Cancel()){\r\nbalance[msg.sender] += amount;\r\nreturn true;\r\n}\r\nreturn false;\r\n}\r\n\r\nfunction TimeOut() public returns (bool) {\r\nrequire(dogged[msg.sender]);\r\nuint currentTime = now;\r\nDogeContract _contract = doggies[msg.sender];\r\nif (now > (_contract.GetEndTime() + _contract.GetTimeOut())){\r\nreturn _contract.TimeOut();\r\n}\r\nreturn false;\r\n}\r\n\r\n\r\n\r\n}\r\n",
  "sourcePath": "C:\\Users\\ericl\\Desktop\\UCB academics\\blockchain stuff\\lahacks\\contracts\\Dogeflow.sol",
  "compiler": {
    "name": "solc",
    "version": "0.4.19+commit.c4cbbb05.Emscripten.clang"
  },
  "schemaVersion": "2.0.0",
  "updatedAt": "2018-03-31T23:13:36.541Z"
}