{
  "contractName": "DogeContract",
  "abi": [
    {
      "constant": true,
      "inputs": [],
      "name": "name",
      "outputs": [
        {
          "name": "",
          "type": "bytes32"
        }
      ],
      "payable": false,
      "stateMutability": "view",
      "type": "function"
    },
    {
      "constant": true,
      "inputs": [],
      "name": "terminated",
      "outputs": [
        {
          "name": "",
          "type": "bool"
        }
      ],
      "payable": false,
      "stateMutability": "view",
      "type": "function"
    },
    {
      "constant": true,
      "inputs": [],
      "name": "endTime",
      "outputs": [
        {
          "name": "",
          "type": "uint256"
        }
      ],
      "payable": false,
      "stateMutability": "view",
      "type": "function"
    },
    {
      "constant": true,
      "inputs": [],
      "name": "contracter",
      "outputs": [
        {
          "name": "",
          "type": "address"
        }
      ],
      "payable": false,
      "stateMutability": "view",
      "type": "function"
    },
    {
      "constant": true,
      "inputs": [],
      "name": "timeout",
      "outputs": [
        {
          "name": "",
          "type": "uint256"
        }
      ],
      "payable": false,
      "stateMutability": "view",
      "type": "function"
    },
    {
      "constant": true,
      "inputs": [],
      "name": "description",
      "outputs": [
        {
          "name": "",
          "type": "bytes32"
        }
      ],
      "payable": false,
      "stateMutability": "view",
      "type": "function"
    },
    {
      "constant": true,
      "inputs": [],
      "name": "startTime",
      "outputs": [
        {
          "name": "",
          "type": "uint256"
        }
      ],
      "payable": false,
      "stateMutability": "view",
      "type": "function"
    },
    {
      "constant": true,
      "inputs": [],
      "name": "channel",
      "outputs": [
        {
          "name": "",
          "type": "uint256"
        }
      ],
      "payable": false,
      "stateMutability": "view",
      "type": "function"
    },
    {
      "constant": true,
      "inputs": [],
      "name": "owner",
      "outputs": [
        {
          "name": "",
          "type": "address"
        }
      ],
      "payable": false,
      "stateMutability": "view",
      "type": "function"
    },
    {
      "constant": true,
      "inputs": [],
      "name": "bounty",
      "outputs": [
        {
          "name": "",
          "type": "uint256"
        }
      ],
      "payable": false,
      "stateMutability": "view",
      "type": "function"
    },
    {
      "constant": true,
      "inputs": [],
      "name": "phase",
      "outputs": [
        {
          "name": "",
          "type": "uint256"
        }
      ],
      "payable": false,
      "stateMutability": "view",
      "type": "function"
    },
    {
      "constant": true,
      "inputs": [],
      "name": "taken",
      "outputs": [
        {
          "name": "",
          "type": "bool"
        }
      ],
      "payable": false,
      "stateMutability": "view",
      "type": "function"
    },
    {
      "constant": true,
      "inputs": [],
      "name": "deposit",
      "outputs": [
        {
          "name": "",
          "type": "uint256"
        }
      ],
      "payable": false,
      "stateMutability": "view",
      "type": "function"
    },
    {
      "inputs": [
        {
          "name": "_name",
          "type": "bytes32"
        },
        {
          "name": "_description",
          "type": "bytes32"
        },
        {
          "name": "_startTime",
          "type": "uint256"
        },
        {
          "name": "_endTime",
          "type": "uint256"
        },
        {
          "name": "_bounty",
          "type": "uint256"
        },
        {
          "name": "_deposit",
          "type": "uint256"
        }
      ],
      "payable": false,
      "stateMutability": "nonpayable",
      "type": "constructor"
    },
    {
      "constant": true,
      "inputs": [],
      "name": "GetTerminated",
      "outputs": [
        {
          "name": "",
          "type": "bool"
        }
      ],
      "payable": false,
      "stateMutability": "view",
      "type": "function"
    },
    {
      "constant": true,
      "inputs": [],
      "name": "GetContracter",
      "outputs": [
        {
          "name": "",
          "type": "address"
        }
      ],
      "payable": false,
      "stateMutability": "view",
      "type": "function"
    },
    {
      "constant": true,
      "inputs": [],
      "name": "GetDeposit",
      "outputs": [
        {
          "name": "",
          "type": "uint256"
        }
      ],
      "payable": false,
      "stateMutability": "view",
      "type": "function"
    },
    {
      "constant": true,
      "inputs": [],
      "name": "GetEndTime",
      "outputs": [
        {
          "name": "",
          "type": "uint256"
        }
      ],
      "payable": false,
      "stateMutability": "view",
      "type": "function"
    },
    {
      "constant": true,
      "inputs": [],
      "name": "GetTimeOut",
      "outputs": [
        {
          "name": "",
          "type": "uint256"
        }
      ],
      "payable": false,
      "stateMutability": "view",
      "type": "function"
    },
    {
      "constant": true,
      "inputs": [],
      "name": "GetChannel",
      "outputs": [
        {
          "name": "",
          "type": "uint256"
        }
      ],
      "payable": false,
      "stateMutability": "view",
      "type": "function"
    },
    {
      "constant": false,
      "inputs": [
        {
          "name": "_contracter",
          "type": "address"
        }
      ],
      "name": "Accept",
      "outputs": [
        {
          "name": "",
          "type": "bool"
        }
      ],
      "payable": false,
      "stateMutability": "nonpayable",
      "type": "function"
    },
    {
      "constant": false,
      "inputs": [],
      "name": "ConfirmB",
      "outputs": [
        {
          "name": "",
          "type": "bool"
        }
      ],
      "payable": false,
      "stateMutability": "nonpayable",
      "type": "function"
    },
    {
      "constant": false,
      "inputs": [],
      "name": "ConfirmA",
      "outputs": [
        {
          "name": "",
          "type": "bool"
        }
      ],
      "payable": false,
      "stateMutability": "nonpayable",
      "type": "function"
    },
    {
      "constant": false,
      "inputs": [],
      "name": "Cancel",
      "outputs": [
        {
          "name": "",
          "type": "bool"
        }
      ],
      "payable": false,
      "stateMutability": "nonpayable",
      "type": "function"
    },
    {
      "constant": false,
      "inputs": [],
      "name": "TimeOut",
      "outputs": [
        {
          "name": "",
          "type": "bool"
        }
      ],
      "payable": false,
      "stateMutability": "nonpayable",
      "type": "function"
    }
  ],
  "bytecode": "0x6060604052341561000f57600080fd5b60405160c080610a8983398101604052808051906020019091908051906020019091908051906020019091908051906020019091908051906020019091908051906020019091905050336000806101000a81548173ffffffffffffffffffffffffffffffffffffffff021916908373ffffffffffffffffffffffffffffffffffffffff16021790555085600281600019169055508460038160001916905550836005819055508260068190555081600981905550816007819055508060088190555060028484038115156100df57fe5b04600a8190555060006004819055506000600b60006101000a81548160ff0219169083151502179055506000600b60016101000a81548160ff021916908315150217905550505050505050610950806101396000396000f30060606040526004361061013e576000357c0100000000000000000000000000000000000000000000000000000000900463ffffffff16806306fdde0314610143578063194307bf146101745780633197cbb6146101a15780633f16a10b146101ca57806342f8cfcf1461021f5780634aa8e7731461024c57806354c05203146102795780635dbe2599146102a657806370dea79a146102f757806371ad29ee146103205780637284e4161461034d57806378e979251461037e5780637bbdb96e146103a75780637ccd9f33146103d057806380eba6c1146103f95780638da5cb5b14610422578063943dfef114610477578063b1c9fe6e146104a0578063b6761a64146104c9578063ceaa1f0f146104f6578063d0e30db01461051f578063d53f439814610548578063f3b30ee31461059d578063f50c6439146105ca575b600080fd5b341561014e57600080fd5b6101566105f3565b60405180826000191660001916815260200191505060405180910390f35b341561017f57600080fd5b6101876105f9565b604051808215151515815260200191505060405180910390f35b34156101ac57600080fd5b6101b461060c565b6040518082815260200191505060405180910390f35b34156101d557600080fd5b6101dd610612565b604051808273ffffffffffffffffffffffffffffffffffffffff1673ffffffffffffffffffffffffffffffffffffffff16815260200191505060405180910390f35b341561022a57600080fd5b610232610638565b604051808215151515815260200191505060405180910390f35b341561025757600080fd5b61025f61067a565b604051808215151515815260200191505060405180910390f35b341561028457600080fd5b61028c6106df565b604051808215151515815260200191505060405180910390f35b34156102b157600080fd5b6102dd600480803573ffffffffffffffffffffffffffffffffffffffff16906020019091905050610718565b604051808215151515815260200191505060405180910390f35b341561030257600080fd5b61030a61080d565b6040518082815260200191505060405180910390f35b341561032b57600080fd5b610333610813565b604051808215151515815260200191505060405180910390f35b341561035857600080fd5b61036061085f565b60405180826000191660001916815260200191505060405180910390f35b341561038957600080fd5b610391610865565b6040518082815260200191505060405180910390f35b34156103b257600080fd5b6103ba61086b565b6040518082815260200191505060405180910390f35b34156103db57600080fd5b6103e3610871565b6040518082815260200191505060405180910390f35b341561040457600080fd5b61040c61087b565b6040518082815260200191505060405180910390f35b341561042d57600080fd5b610435610885565b604051808273ffffffffffffffffffffffffffffffffffffffff1673ffffffffffffffffffffffffffffffffffffffff16815260200191505060405180910390f35b341561048257600080fd5b61048a6108aa565b6040518082815260200191505060405180910390f35b34156104ab57600080fd5b6104b36108b0565b6040518082815260200191505060405180910390f35b34156104d457600080fd5b6104dc6108b6565b604051808215151515815260200191505060405180910390f35b341561050157600080fd5b6105096108c9565b6040518082815260200191505060405180910390f35b341561052a57600080fd5b6105326108d3565b6040518082815260200191505060405180910390f35b341561055357600080fd5b61055b6108d9565b604051808273ffffffffffffffffffffffffffffffffffffffff1673ffffffffffffffffffffffffffffffffffffffff16815260200191505060405180910390f35b34156105a857600080fd5b6105b0610903565b604051808215151515815260200191505060405180910390f35b34156105d557600080fd5b6105dd61091a565b6040518082815260200191505060405180910390f35b60025481565b600b60019054906101000a900460ff1681565b60065481565b600160009054906101000a900473ffffffffffffffffffffffffffffffffffffffff1681565b6000600260045414151561064f5760009050610677565b6001600b60016101000a81548160ff0219169083151502179055506000600981905550600190505b90565b6000600b60009054906101000a900460ff161580156106a65750600b60019054906101000a900460ff16155b156106d7576001600b60016101000a81548160ff0219169083151502179055506000600981905550600190506106dc565b600090505b90565b600060016004541415156106f65760009050610715565b6002600481905550600854600960008282540192505081905550600190505b90565b60008060045414801561077857506000809054906101000a900473ffffffffffffffffffffffffffffffffffffffff1673ffffffffffffffffffffffffffffffffffffffff168273ffffffffffffffffffffffffffffffffffffffff1614155b80156107915750600b60019054906101000a900460ff16155b156108035781600160006101000a81548173ffffffffffffffffffffffffffffffffffffffff021916908373ffffffffffffffffffffffffffffffffffffffff16021790555060016004819055506001600b60006101000a81548160ff02191690831515021790555060019050610808565b600090505b919050565b600a5481565b6000600b60019054906101000a900460ff161515610857576001600b60016101000a81548160ff02191690831515021790555060006009819055506001905061085c565b600090505b90565b60035481565b60055481565b60095481565b6000600a54905090565b6000600954905090565b6000809054906101000a900473ffffffffffffffffffffffffffffffffffffffff1681565b60075481565b60045481565b600b60009054906101000a900460ff1681565b6000600854905090565b60085481565b6000600160009054906101000a900473ffffffffffffffffffffffffffffffffffffffff16905090565b6000600b60019054906101000a900460ff16905090565b60006006549050905600a165627a7a723058208724705adebb4eb04600f9ad379faf223204b61ddf209528ce276fb251925de50029",
  "source": "pragma solidity ^0.4.17;\r\n\r\ncontract DogeContract{\r\n\r\naddress public owner;\r\naddress public contracter;\r\nbytes32 public name;\r\nbytes32 public description;\r\nuint public phase;\r\nuint public startTime;\r\nuint public endTime;\r\nuint public bounty;\r\nuint public deposit;\r\nuint public channel;\r\nuint public timeout;\r\nbool public taken;\r\nbool public terminated;\r\n\r\nfunction DogeContract(bytes32 _name, bytes32 _description, uint _startTime, uint _endTime, uint _bounty, uint _deposit) public{\r\nowner = msg.sender;\r\nname = _name;\r\ndescription = _description;\r\nstartTime = _startTime;\r\nendTime = _endTime;\r\nchannel = _bounty;\r\nbounty = _bounty;\r\ndeposit = _deposit;\r\ntimeout =  (_endTime - _startTime)/2;\r\nphase = 0;\r\ntaken =  false;\r\nterminated = false;\r\n}\r\n//getter functions\r\nfunction GetTerminated() public view returns(bool) { return terminated; }\r\nfunction GetContracter() public view returns(address) { return contracter; }\r\nfunction GetDeposit() public view returns(uint) { return deposit; }\r\nfunction GetEndTime() public view returns(uint) { return endTime; }\r\nfunction GetTimeOut() public view returns(uint) { return timeout; }\r\nfunction GetChannel() public view returns(uint) { return channel; }\r\n\r\n\r\nfunction Accept(address _contracter) public returns (bool){\r\nif (phase == 0 && _contracter!=owner&& !terminated){\r\ncontracter = _contracter;\r\nphase = 1;\r\ntaken = true;\r\nreturn true;\r\n}\r\nreturn false;\r\n}\r\n\r\n\r\nfunction ConfirmB() public returns (bool){\r\nif (phase != 1) {\r\nreturn false;\r\n}\r\nphase = 2;\r\nchannel += deposit;\r\nreturn true;\r\n}\r\n\r\nfunction ConfirmA() public returns (bool){\r\nif (phase != 2) {\r\nreturn false;\r\n}\r\nterminated = true;\r\nchannel = 0;\r\nreturn true;\r\n}\r\n\r\nfunction Cancel() public returns (bool){\r\nif (!taken && !terminated){\r\nterminated= true;\r\nchannel = 0;\r\nreturn true;\r\n}\r\nreturn false;\r\n}\r\n\r\nfunction TimeOut() public returns (bool){\r\nif (!terminated){\r\nterminated= true;\r\nchannel = 0;\r\nreturn true;\r\n}\r\nreturn false;\r\n}\r\n}\r\n\r\n\r\n",
  "sourcePath": "C:\\Users\\ericl\\Desktop\\UCB academics\\blockchain stuff\\lahacks\\contracts\\DogeContract.sol",
  "compiler": {
    "name": "solc",
    "version": "0.4.19+commit.c4cbbb05.Emscripten.clang"
  },
  "schemaVersion": "2.0.0",
  "updatedAt": "2018-04-01T00:45:49.616Z"
}